{"abi":[{"type":"constructor","inputs":[],"stateMutability":"nonpayable"},{"type":"function","name":"acceptFeeCollector","inputs":[],"outputs":[],"stateMutability":"nonpayable"},{"type":"function","name":"claim","inputs":[{"name":"_inheritanceId","type":"uint256","internalType":"uint256"}],"outputs":[],"stateMutability":"nonpayable"},{"type":"function","name":"deposit","inputs":[{"name":"_token","type":"address","internalType":"address"},{"name":"_beneficiary","type":"address","internalType":"address"},{"name":"_amount","type":"uint256","internalType":"uint256"},{"name":"_deadline","type":"uint256","internalType":"uint256"}],"outputs":[{"name":"","type":"uint256","internalType":"uint256"}],"stateMutability":"payable"},{"type":"function","name":"extendDeadline","inputs":[{"name":"_inheritanceId","type":"uint256","internalType":"uint256"},{"name":"_newDeadline","type":"uint256","internalType":"uint256"}],"outputs":[],"stateMutability":"nonpayable"},{"type":"function","name":"feeCollector","inputs":[],"outputs":[{"name":"","type":"address","internalType":"address"}],"stateMutability":"view"},{"type":"function","name":"getInheritance","inputs":[{"name":"_inheritanceId","type":"uint256","internalType":"uint256"}],"outputs":[{"name":"depositor","type":"address","internalType":"address"},{"name":"beneficiary","type":"address","internalType":"address"},{"name":"token","type":"address","internalType":"address"},{"name":"amount","type":"uint256","internalType":"uint256"},{"name":"deadline","type":"uint256","internalType":"uint256"},{"name":"claimed","type":"bool","internalType":"bool"}],"stateMutability":"view"},{"type":"function","name":"inheritances","inputs":[{"name":"","type":"uint256","internalType":"uint256"}],"outputs":[{"name":"depositor","type":"address","internalType":"address"},{"name":"beneficiary","type":"address","internalType":"address"},{"name":"token","type":"address","internalType":"address"},{"name":"amount","type":"uint256","internalType":"uint256"},{"name":"deadline","type":"uint256","internalType":"uint256"},{"name":"claimed","type":"bool","internalType":"bool"}],"stateMutability":"view"},{"type":"function","name":"nextInheritanceId","inputs":[],"outputs":[{"name":"","type":"uint256","internalType":"uint256"}],"stateMutability":"view"},{"type":"function","name":"pendingFeeCollector","inputs":[],"outputs":[{"name":"","type":"address","internalType":"address"}],"stateMutability":"view"},{"type":"function","name":"reclaim","inputs":[{"name":"_inheritanceId","type":"uint256","internalType":"uint256"}],"outputs":[],"stateMutability":"nonpayable"},{"type":"function","name":"transferFeeCollector","inputs":[{"name":"newFeeCollector","type":"address","internalType":"address"}],"outputs":[],"stateMutability":"nonpayable"},{"type":"event","name":"DeadlineExtended","inputs":[{"name":"inheritanceId","type":"uint256","indexed":true,"internalType":"uint256"},{"name":"oldDeadline","type":"uint256","indexed":false,"internalType":"uint256"},{"name":"newDeadline","type":"uint256","indexed":false,"internalType":"uint256"}],"anonymous":false},{"type":"event","name":"FeeCollected","inputs":[{"name":"collector","type":"address","indexed":true,"internalType":"address"},{"name":"token","type":"address","indexed":false,"internalType":"address"},{"name":"amount","type":"uint256","indexed":false,"internalType":"uint256"},{"name":"feeType","type":"string","indexed":false,"internalType":"string"}],"anonymous":false},{"type":"event","name":"FeeCollectorTransferStarted","inputs":[{"name":"currentCollector","type":"address","indexed":true,"internalType":"address"},{"name":"pendingCollector","type":"address","indexed":true,"internalType":"address"}],"anonymous":false},{"type":"event","name":"FeeCollectorTransferred","inputs":[{"name":"previousCollector","type":"address","indexed":true,"internalType":"address"},{"name":"newCollector","type":"address","indexed":true,"internalType":"address"}],"anonymous":false},{"type":"event","name":"InheritanceClaimed","inputs":[{"name":"inheritanceId","type":"uint256","indexed":true,"internalType":"uint256"},{"name":"beneficiary","type":"address","indexed":true,"internalType":"address"},{"name":"token","type":"address","indexed":false,"internalType":"address"},{"name":"amount","type":"uint256","indexed":false,"internalType":"uint256"}],"anonymous":false},{"type":"event","name":"InheritanceCreated","inputs":[{"name":"inheritanceId","type":"uint256","indexed":true,"internalType":"uint256"},{"name":"depositor","type":"address","indexed":true,"internalType":"address"},{"name":"beneficiary","type":"address","indexed":true,"internalType":"address"},{"name":"token","type":"address","indexed":false,"internalType":"address"},{"name":"amount","type":"uint256","indexed":false,"internalType":"uint256"},{"name":"deadline","type":"uint256","indexed":false,"internalType":"uint256"}],"anonymous":false},{"type":"event","name":"InheritanceReclaimed","inputs":[{"name":"inheritanceId","type":"uint256","indexed":true,"internalType":"uint256"},{"name":"depositor","type":"address","indexed":true,"internalType":"address"},{"name":"token","type":"address","indexed":false,"internalType":"address"},{"name":"amount","type":"uint256","indexed":false,"internalType":"uint256"}],"anonymous":false},{"type":"error","name":"AlreadyClaimed","inputs":[]},{"type":"error","name":"DeadlineAlreadyPassed","inputs":[]},{"type":"error","name":"DeadlineNotReached","inputs":[]},{"type":"error","name":"InheritanceNotFound","inputs":[]},{"type":"error","name":"InsufficientAmount","inputs":[]},{"type":"error","name":"InvalidBeneficiary","inputs":[]},{"type":"error","name":"InvalidDeadline","inputs":[]},{"type":"error","name":"InvalidFeeCollector","inputs":[]},{"type":"error","name":"InvalidTokenTransfer","inputs":[]},{"type":"error","name":"NoPendingTransfer","inputs":[]},{"type":"error","name":"OnlyBeneficiary","inputs":[]},{"type":"error","name":"OnlyDepositor","inputs":[]},{"type":"error","name":"OnlyFeeCollector","inputs":[]},{"type":"error","name":"ReentrancyGuardReentrantCall","inputs":[]},{"type":"error","name":"SafeERC20FailedOperation","inputs":[{"name":"token","type":"address","internalType":"address"}]}],"bytecode":{"object":"0x6080604052348015600e575f5ffd5b5060017f9b779b17422d0df92223018b32b4d1fa46e071723d6817e2486d003becc55f00555f80546001600160a01b031916331790556110e3806100515f395ff3fe60806040526004361061009a575f3560e01c80638df78f41116100625780638df78f4114610154578063b3ad7e0414610169578063babbf04c14610208578063c415b95c14610227578063dd43b63714610245578063fa5e81ac146102a9575f5ffd5b80631db1231b1461009e57806320e8c565146100d45780632d1fdef6146100f55780632dabbeed14610116578063379607f514610135575b5f5ffd5b3480156100a9575f5ffd5b506001546001600160a01b03165b6040516001600160a01b0390911681526020015b60405180910390f35b6100e76100e2366004610f93565b6102bd565b6040519081526020016100cb565b348015610100575f5ffd5b5061011461010f366004610fd2565b6106d5565b005b348015610121575f5ffd5b50610114610130366004610ff2565b6107c5565b348015610140575f5ffd5b5061011461014f366004610ff2565b6109a3565b34801561015f575f5ffd5b506100e760035481565b348015610174575f5ffd5b506101ca610183366004610ff2565b600260208190525f91825260409091208054600182015492820154600383015460048401546005909401546001600160a01b03938416958416949390921692909160ff1686565b604080516001600160a01b039788168152958716602087015293909516928401929092526060830152608082015290151560a082015260c0016100cb565b348015610213575f5ffd5b50610114610222366004611009565b610cc2565b348015610232575f5ffd5b505f546100b7906001600160a01b031681565b348015610250575f5ffd5b506101ca61025f366004610ff2565b5f9081526002602081905260409091208054600182015492820154600383015460048401546005909401546001600160a01b03938416969584169593909216939092909160ff1690565b3480156102b4575f5ffd5b50610114610d63565b5f6102c6610de7565b6001600160a01b0384166102ed57604051631559b7d760e21b815260040160405180910390fd5b336001600160a01b0385160361031657604051631559b7d760e21b815260040160405180910390fd5b42821161033657604051631da7447960e21b815260040160405180910390fd5b5f80806001600160a01b03881661042857345f0361036757604051632ca2f52b60e11b815260040160405180910390fd5b3492506103766103e88461103d565b9150610382828461105c565b5f805460405192935090916001600160a01b039091169084908381818185875af1925050503d805f81146103d1576040519150601f19603f3d011682016040523d82523d5f602084013e6103d6565b606091505b50509050806104225760405162461bcd60e51b8152602060048201526013602482015272119959481d1c985b9cd9995c8819985a5b1959606a1b60448201526064015b60405180910390fd5b506104b2565b855f0361044857604051632ca2f52b60e11b815260040160405180910390fd5b34156104675760405163289aef6960e01b815260040160405180910390fd5b8592506104766103e88461103d565b9150610482828461105c565b90506104996001600160a01b038916333086610e02565b5f546104b2906001600160a01b038a8116911684610e3e565b5f54604080516001600160a01b038b811682526020820186905260609282018390526007928201929092526619195c1bdcda5d60ca1b60808201529116907f3d1f64091552f4e26b3a2f7bc8f412a53d092711f4a657e136311d9e4b4ea3349060a00160405180910390a2600380545f918261052d83611075565b9190505590506040518060c00160405280336001600160a01b03168152602001896001600160a01b031681526020018a6001600160a01b031681526020018381526020018781526020015f151581525060025f8381526020019081526020015f205f820151815f015f6101000a8154816001600160a01b0302191690836001600160a01b031602179055506020820151816001015f6101000a8154816001600160a01b0302191690836001600160a01b031602179055506040820151816002015f6101000a8154816001600160a01b0302191690836001600160a01b03160217905550606082015181600301556080820151816004015560a0820151816005015f6101000a81548160ff021916908315150217905550905050876001600160a01b0316336001600160a01b0316827f59399dd3968479f827b6e35556f645e366228e3fca2f12df345c0c8feac5919e8c868b6040516106aa939291906001600160a01b039390931683526020830191909152604082015260600190565b60405180910390a493505050506106cd60015f51602061108e5f395f51905f5255565b949350505050565b5f82815260026020526040902080546001600160a01b031661070a5760405163189481b160e21b815260040160405180910390fd5b600581015460ff161561073057604051630c8d9eab60e31b815260040160405180910390fd5b80546001600160a01b0316331461075a576040516319d1820960e31b815260040160405180910390fd5b42821161077a57604051631da7447960e21b815260040160405180910390fd5b60048101805490839055604080518281526020810185905285917f514af8ba7abbcaa858d00568e0788cd39416a39195eac9780f8730cd4fcfb103910160405180910390a250505050565b6107cd610de7565b5f81815260026020526040902080546001600160a01b03166108025760405163189481b160e21b815260040160405180910390fd5b600581015460ff161561082857604051630c8d9eab60e31b815260040160405180910390fd5b80546001600160a01b03163314610852576040516319d1820960e31b815260040160405180910390fd5b8060040154421061087657604051633516ea6b60e01b815260040160405180910390fd5b60058101805460ff1916600117905560028101546003820154604080516001600160a01b039093168084526020840183905292339186917f9c22bfe062965a81a5409dd6b92ce6c700345fd275b7ece31910753ab529f7f0910160405180910390a36001600160a01b038216610973576040515f90339083908381818185875af1925050503d805f8114610925576040519150601f19603f3d011682016040523d82523d5f602084013e61092a565b606091505b505090508061096d5760405162461bcd60e51b815260206004820152600f60248201526e151c985b9cd9995c8819985a5b1959608a1b6044820152606401610419565b50610987565b6109876001600160a01b0383163383610e3e565b5050506109a060015f51602061108e5f395f51905f5255565b50565b6109ab610de7565b5f81815260026020526040902080546001600160a01b03166109e05760405163189481b160e21b815260040160405180910390fd5b600581015460ff1615610a0657604051630c8d9eab60e31b815260040160405180910390fd5b60018101546001600160a01b03163314610a3357604051635e5a974960e01b815260040160405180910390fd5b8060040154421015610a5857604051633376277360e11b815260040160405180910390fd5b60058101805460ff19166001179055600281015460038201546001600160a01b03909116905f610a8960648361103d565b90505f610a96828461105c565b604080516001600160a01b038716815260208101839052919250339188917f68b5e704907c827e9154c93f5f7eb1b9f1565ac3662c0608c15059f03827da4b910160405180910390a35f54604080516001600160a01b03878116825260208201869052606092820183905260059282019290925264636c61696d60d81b60808201529116907f3d1f64091552f4e26b3a2f7bc8f412a53d092711f4a657e136311d9e4b4ea3349060a00160405180910390a26001600160a01b038416610c7a575f80546040516001600160a01b039091169084908381818185875af1925050503d805f8114610ba0576040519150601f19603f3d011682016040523d82523d5f602084013e610ba5565b606091505b5050905080610bec5760405162461bcd60e51b8152602060048201526013602482015272119959481d1c985b9cd9995c8819985a5b1959606a1b6044820152606401610419565b6040515f90339084908381818185875af1925050503d805f8114610c2b576040519150601f19603f3d011682016040523d82523d5f602084013e610c30565b606091505b5050905080610c735760405162461bcd60e51b815260206004820152600f60248201526e151c985b9cd9995c8819985a5b1959608a1b6044820152606401610419565b5050610ca7565b5f54610c93906001600160a01b03868116911684610e3e565b610ca76001600160a01b0385163383610e3e565b50505050506109a060015f51602061108e5f395f51905f5255565b5f546001600160a01b03163314610cec57604051639103459960e01b815260040160405180910390fd5b6001600160a01b038116610d135760405163bb0bac9960e01b815260040160405180910390fd5b600180546001600160a01b0319166001600160a01b038381169182179092555f8054604051929316917fc15ff6e507b231f3fb94f644c3c2aadbe9664fc929952fa4e0c44419216abf019190a350565b6001546001600160a01b03163314610d8e5760405163357a03ed60e21b815260040160405180910390fd5b5f8054600180546001600160a01b038082166001600160a01b031980861682178755909216909255604051919092169283917f598bd60a07f6a831bee6aaf743aa7f7951fd0393601a3cca1b24e5021d013e879190a350565b610def610e78565b60025f51602061108e5f395f51905f5255565b610e10848484846001610ea9565b610e3857604051635274afe760e01b81526001600160a01b0385166004820152602401610419565b50505050565b610e4b8383836001610f16565b610e7357604051635274afe760e01b81526001600160a01b0384166004820152602401610419565b505050565b5f51602061108e5f395f51905f5254600203610ea757604051633ee5aeb560e01b815260040160405180910390fd5b565b6040516323b872dd60e01b5f8181526001600160a01b038781166004528616602452604485905291602083606481808c5af1925060015f51148316610f05578383151615610ef9573d5f823e3d81fd5b5f883b113d1516831692505b604052505f60605295945050505050565b60405163a9059cbb60e01b5f8181526001600160a01b038616600452602485905291602083604481808b5af1925060015f51148316610f6c578383151615610f60573d5f823e3d81fd5b5f873b113d1516831692505b60405250949350505050565b80356001600160a01b0381168114610f8e575f5ffd5b919050565b5f5f5f5f60808587031215610fa6575f5ffd5b610faf85610f78565b9350610fbd60208601610f78565b93969395505050506040820135916060013590565b5f5f60408385031215610fe3575f5ffd5b50508035926020909101359150565b5f60208284031215611002575f5ffd5b5035919050565b5f60208284031215611019575f5ffd5b61102282610f78565b9392505050565b634e487b7160e01b5f52601160045260245ffd5b5f8261105757634e487b7160e01b5f52601260045260245ffd5b500490565b8181038181111561106f5761106f611029565b92915050565b5f6001820161108657611086611029565b506001019056fe9b779b17422d0df92223018b32b4d1fa46e071723d6817e2486d003becc55f00a2646970667358221220ac102d4f3f32097aab907520e56c158f56b38d53271b3785614a9219aa8e74a364736f6c634300081e0033","linkReferences":{}},"methodIdentifiers":{"acceptFeeCollector()":"fa5e81ac","claim(uint256)":"379607f5","deposit(address,address,uint256,uint256)":"20e8c565","extendDeadline(uint256,uint256)":"2d1fdef6","feeCollector()":"c415b95c","getInheritance(uint256)":"dd43b637","inheritances(uint256)":"b3ad7e04","nextInheritanceId()":"8df78f41","pendingFeeCollector()":"1db1231b","reclaim(uint256)":"2dabbeed","transferFeeCollector(address)":"babbf04c"},"id":31}