{"abi":[{"type":"constructor","inputs":[],"stateMutability":"nonpayable"},{"type":"function","name":"acceptFeeCollector","inputs":[],"outputs":[],"stateMutability":"nonpayable"},{"type":"function","name":"claim","inputs":[{"name":"_inheritanceId","type":"uint256","internalType":"uint256"}],"outputs":[],"stateMutability":"nonpayable"},{"type":"function","name":"deposit","inputs":[{"name":"_token","type":"address","internalType":"address"},{"name":"_beneficiary","type":"address","internalType":"address"},{"name":"_amount","type":"uint256","internalType":"uint256"},{"name":"_deadline","type":"uint256","internalType":"uint256"}],"outputs":[{"name":"","type":"uint256","internalType":"uint256"}],"stateMutability":"payable"},{"type":"function","name":"extendDeadline","inputs":[{"name":"_inheritanceId","type":"uint256","internalType":"uint256"},{"name":"_newDeadline","type":"uint256","internalType":"uint256"}],"outputs":[],"stateMutability":"nonpayable"},{"type":"function","name":"feeCollector","inputs":[],"outputs":[{"name":"","type":"address","internalType":"address"}],"stateMutability":"view"},{"type":"function","name":"getInheritance","inputs":[{"name":"_inheritanceId","type":"uint256","internalType":"uint256"}],"outputs":[{"name":"depositor","type":"address","internalType":"address"},{"name":"beneficiary","type":"address","internalType":"address"},{"name":"token","type":"address","internalType":"address"},{"name":"amount","type":"uint256","internalType":"uint256"},{"name":"deadline","type":"uint256","internalType":"uint256"},{"name":"claimed","type":"bool","internalType":"bool"}],"stateMutability":"view"},{"type":"function","name":"inheritances","inputs":[{"name":"","type":"uint256","internalType":"uint256"}],"outputs":[{"name":"depositor","type":"address","internalType":"address"},{"name":"beneficiary","type":"address","internalType":"address"},{"name":"token","type":"address","internalType":"address"},{"name":"amount","type":"uint256","internalType":"uint256"},{"name":"deadline","type":"uint256","internalType":"uint256"},{"name":"claimed","type":"bool","internalType":"bool"}],"stateMutability":"view"},{"type":"function","name":"nextInheritanceId","inputs":[],"outputs":[{"name":"","type":"uint256","internalType":"uint256"}],"stateMutability":"view"},{"type":"function","name":"pendingFeeCollector","inputs":[],"outputs":[{"name":"","type":"address","internalType":"address"}],"stateMutability":"view"},{"type":"function","name":"reclaim","inputs":[{"name":"_inheritanceId","type":"uint256","internalType":"uint256"}],"outputs":[],"stateMutability":"nonpayable"},{"type":"function","name":"transferFeeCollector","inputs":[{"name":"newFeeCollector","type":"address","internalType":"address"}],"outputs":[],"stateMutability":"nonpayable"},{"type":"event","name":"DeadlineExtended","inputs":[{"name":"inheritanceId","type":"uint256","indexed":true,"internalType":"uint256"},{"name":"oldDeadline","type":"uint256","indexed":false,"internalType":"uint256"},{"name":"newDeadline","type":"uint256","indexed":false,"internalType":"uint256"}],"anonymous":false},{"type":"event","name":"FeeCollected","inputs":[{"name":"collector","type":"address","indexed":true,"internalType":"address"},{"name":"token","type":"address","indexed":false,"internalType":"address"},{"name":"amount","type":"uint256","indexed":false,"internalType":"uint256"},{"name":"feeType","type":"string","indexed":false,"internalType":"string"}],"anonymous":false},{"type":"event","name":"FeeCollectorTransferStarted","inputs":[{"name":"currentCollector","type":"address","indexed":true,"internalType":"address"},{"name":"pendingCollector","type":"address","indexed":true,"internalType":"address"}],"anonymous":false},{"type":"event","name":"FeeCollectorTransferred","inputs":[{"name":"previousCollector","type":"address","indexed":true,"internalType":"address"},{"name":"newCollector","type":"address","indexed":true,"internalType":"address"}],"anonymous":false},{"type":"event","name":"InheritanceClaimed","inputs":[{"name":"inheritanceId","type":"uint256","indexed":true,"internalType":"uint256"},{"name":"beneficiary","type":"address","indexed":true,"internalType":"address"},{"name":"token","type":"address","indexed":false,"internalType":"address"},{"name":"amount","type":"uint256","indexed":false,"internalType":"uint256"}],"anonymous":false},{"type":"event","name":"InheritanceCreated","inputs":[{"name":"inheritanceId","type":"uint256","indexed":true,"internalType":"uint256"},{"name":"depositor","type":"address","indexed":true,"internalType":"address"},{"name":"beneficiary","type":"address","indexed":true,"internalType":"address"},{"name":"token","type":"address","indexed":false,"internalType":"address"},{"name":"amount","type":"uint256","indexed":false,"internalType":"uint256"},{"name":"deadline","type":"uint256","indexed":false,"internalType":"uint256"}],"anonymous":false},{"type":"event","name":"InheritanceReclaimed","inputs":[{"name":"inheritanceId","type":"uint256","indexed":true,"internalType":"uint256"},{"name":"depositor","type":"address","indexed":true,"internalType":"address"},{"name":"token","type":"address","indexed":false,"internalType":"address"},{"name":"amount","type":"uint256","indexed":false,"internalType":"uint256"}],"anonymous":false},{"type":"error","name":"AlreadyClaimed","inputs":[]},{"type":"error","name":"DeadlineAlreadyPassed","inputs":[]},{"type":"error","name":"DeadlineNotReached","inputs":[]},{"type":"error","name":"InheritanceNotFound","inputs":[]},{"type":"error","name":"InsufficientAmount","inputs":[]},{"type":"error","name":"InvalidBeneficiary","inputs":[]},{"type":"error","name":"InvalidDeadline","inputs":[]},{"type":"error","name":"InvalidFeeCollector","inputs":[]},{"type":"error","name":"InvalidTokenTransfer","inputs":[]},{"type":"error","name":"NoPendingTransfer","inputs":[]},{"type":"error","name":"OnlyBeneficiary","inputs":[]},{"type":"error","name":"OnlyDepositor","inputs":[]},{"type":"error","name":"OnlyFeeCollector","inputs":[]},{"type":"error","name":"ReentrancyGuardReentrantCall","inputs":[]},{"type":"error","name":"SafeERC20FailedOperation","inputs":[{"name":"token","type":"address","internalType":"address"}]}],"bytecode":{"object":"0x6080604052348015600e575f5ffd5b505f80546001600160a01b031916331790556110788061002d5f395ff3fe60806040526004361061009a575f3560e01c80638df78f41116100625780638df78f4114610154578063b3ad7e0414610169578063babbf04c14610208578063c415b95c14610227578063dd43b63714610245578063fa5e81ac146102a9575f5ffd5b80631db1231b1461009e57806320e8c565146100d45780632d1fdef6146100f55780632dabbeed14610116578063379607f514610135575b5f5ffd5b3480156100a9575f5ffd5b506001546001600160a01b03165b6040516001600160a01b0390911681526020015b60405180910390f35b6100e76100e2366004610f48565b6102bd565b6040519081526020016100cb565b348015610100575f5ffd5b5061011461010f366004610f87565b61064a565b005b348015610121575f5ffd5b50610114610130366004610fa7565b61073a565b348015610140575f5ffd5b5061011461014f366004610fa7565b61090a565b34801561015f575f5ffd5b506100e760035481565b348015610174575f5ffd5b506101ca610183366004610fa7565b600260208190525f91825260409091208054600182015492820154600383015460048401546005909401546001600160a01b03938416958416949390921692909160ff1686565b604080516001600160a01b039788168152958716602087015293909516928401929092526060830152608082015290151560a082015260c0016100cb565b348015610213575f5ffd5b50610114610222366004610fbe565b610c1b565b348015610232575f5ffd5b505f546100b7906001600160a01b031681565b348015610250575f5ffd5b506101ca61025f366004610fa7565b5f9081526002602081905260409091208054600182015492820154600383015460048401546005909401546001600160a01b03938416969584169593909216939092909160ff1690565b3480156102b4575f5ffd5b50610114610cbc565b5f6102c6610d40565b6001600160a01b0384166102ed57604051631559b7d760e21b815260040160405180910390fd5b336001600160a01b0385160361031657604051631559b7d760e21b815260040160405180910390fd5b42821161033657604051631da7447960e21b815260040160405180910390fd5b5f80806001600160a01b03881661036f57345f0361036757604051632ca2f52b60e11b815260040160405180910390fd5b3492506103b2565b855f0361038f57604051632ca2f52b60e11b815260040160405180910390fd5b34156103ae5760405163289aef6960e01b815260040160405180910390fd5b8592505b6103be6103e884610ff2565b91506103ca8284611011565b600380549192505f9190826103de8361102a565b909155506040805160c0810182523381526001600160a01b038b811660208084019182528e831684860190815260608501898152608086018e81525f60a088018181528a8252600295869052898220985189549089166001600160a01b0319918216178a55965160018a018054918a169189169190911790559351948801805495881695909616949094179094555160038601559151600485015590516005909301805493151560ff19909416939093179092559054915192935016907f3d1f64091552f4e26b3a2f7bc8f412a53d092711f4a657e136311d9e4b4ea334906104fd908c9087906001600160a01b0392909216825260208201526060604082018190526007908201526619195c1bdcda5d60ca1b608082015260a00190565b60405180910390a2604080516001600160a01b038b811682526020820185905291810188905290891690339083907f59399dd3968479f827b6e35556f645e366228e3fca2f12df345c0c8feac5919e9060600160405180910390a46001600160a01b038916610607575f80546040516001600160a01b039091169085908381818185875af1925050503d805f81146105b0576040519150601f19603f3d011682016040523d82523d5f602084013e6105b5565b606091505b50509050806106015760405162461bcd60e51b8152602060048201526013602482015272119959481d1c985b9cd9995c8819985a5b1959606a1b60448201526064015b60405180910390fd5b50610635565b61061c6001600160a01b038a16333087610d77565b5f54610635906001600160a01b038b8116911685610db3565b9350505050610642610ded565b949350505050565b5f82815260026020526040902080546001600160a01b031661067f5760405163189481b160e21b815260040160405180910390fd5b600581015460ff16156106a557604051630c8d9eab60e31b815260040160405180910390fd5b80546001600160a01b031633146106cf576040516319d1820960e31b815260040160405180910390fd5b4282116106ef57604051631da7447960e21b815260040160405180910390fd5b60048101805490839055604080518281526020810185905285917f514af8ba7abbcaa858d00568e0788cd39416a39195eac9780f8730cd4fcfb103910160405180910390a250505050565b610742610d40565b5f81815260026020526040902080546001600160a01b03166107775760405163189481b160e21b815260040160405180910390fd5b600581015460ff161561079d57604051630c8d9eab60e31b815260040160405180910390fd5b80546001600160a01b031633146107c7576040516319d1820960e31b815260040160405180910390fd5b806004015442106107eb57604051633516ea6b60e01b815260040160405180910390fd5b60058101805460ff1916600117905560028101546003820154604080516001600160a01b039093168084526020840183905292339186917f9c22bfe062965a81a5409dd6b92ce6c700345fd275b7ece31910753ab529f7f0910160405180910390a36001600160a01b0382166108e8576040515f90339083908381818185875af1925050503d805f811461089a576040519150601f19603f3d011682016040523d82523d5f602084013e61089f565b606091505b50509050806108e25760405162461bcd60e51b815260206004820152600f60248201526e151c985b9cd9995c8819985a5b1959608a1b60448201526064016105f8565b506108fc565b6108fc6001600160a01b0383163383610db3565b505050610907610ded565b50565b610912610d40565b5f81815260026020526040902080546001600160a01b03166109475760405163189481b160e21b815260040160405180910390fd5b600581015460ff161561096d57604051630c8d9eab60e31b815260040160405180910390fd5b60018101546001600160a01b0316331461099a57604051635e5a974960e01b815260040160405180910390fd5b80600401544210156109bf57604051633376277360e11b815260040160405180910390fd5b60058101805460ff19166001179055600281015460038201546001600160a01b03909116905f6109f0606483610ff2565b90505f6109fd8284611011565b604080516001600160a01b038716815260208101839052919250339188917f68b5e704907c827e9154c93f5f7eb1b9f1565ac3662c0608c15059f03827da4b910160405180910390a35f54604080516001600160a01b03878116825260208201869052606092820183905260059282019290925264636c61696d60d81b60808201529116907f3d1f64091552f4e26b3a2f7bc8f412a53d092711f4a657e136311d9e4b4ea3349060a00160405180910390a26001600160a01b038416610be1575f80546040516001600160a01b039091169084908381818185875af1925050503d805f8114610b07576040519150601f19603f3d011682016040523d82523d5f602084013e610b0c565b606091505b5050905080610b535760405162461bcd60e51b8152602060048201526013602482015272119959481d1c985b9cd9995c8819985a5b1959606a1b60448201526064016105f8565b6040515f90339084908381818185875af1925050503d805f8114610b92576040519150601f19603f3d011682016040523d82523d5f602084013e610b97565b606091505b5050905080610bda5760405162461bcd60e51b815260206004820152600f60248201526e151c985b9cd9995c8819985a5b1959608a1b60448201526064016105f8565b5050610c0e565b5f54610bfa906001600160a01b03868116911684610db3565b610c0e6001600160a01b0385163383610db3565b5050505050610907610ded565b5f546001600160a01b03163314610c4557604051639103459960e01b815260040160405180910390fd5b6001600160a01b038116610c6c5760405163bb0bac9960e01b815260040160405180910390fd5b600180546001600160a01b0319166001600160a01b038381169182179092555f8054604051929316917fc15ff6e507b231f3fb94f644c3c2aadbe9664fc929952fa4e0c44419216abf019190a350565b6001546001600160a01b03163314610ce75760405163357a03ed60e21b815260040160405180910390fd5b5f8054600180546001600160a01b038082166001600160a01b031980861682178755909216909255604051919092169283917f598bd60a07f6a831bee6aaf743aa7f7951fd0393601a3cca1b24e5021d013e879190a350565b610d48610e17565b610d7560017f9b779b17422d0df92223018b32b4d1fa46e071723d6817e2486d003becc55f005b90610e57565b565b610d85848484846001610e5e565b610dad57604051635274afe760e01b81526001600160a01b03851660048201526024016105f8565b50505050565b610dc08383836001610ecb565b610de857604051635274afe760e01b81526001600160a01b03841660048201526024016105f8565b505050565b610d755f7f9b779b17422d0df92223018b32b4d1fa46e071723d6817e2486d003becc55f00610d6f565b7f9b779b17422d0df92223018b32b4d1fa46e071723d6817e2486d003becc55f005c15610d7557604051633ee5aeb560e01b815260040160405180910390fd5b80825d5050565b6040516323b872dd60e01b5f8181526001600160a01b038781166004528616602452604485905291602083606481808c5af1925060015f51148316610eba578383151615610eae573d5f823e3d81fd5b5f883b113d1516831692505b604052505f60605295945050505050565b60405163a9059cbb60e01b5f8181526001600160a01b038616600452602485905291602083604481808b5af1925060015f51148316610f21578383151615610f15573d5f823e3d81fd5b5f873b113d1516831692505b60405250949350505050565b80356001600160a01b0381168114610f43575f5ffd5b919050565b5f5f5f5f60808587031215610f5b575f5ffd5b610f6485610f2d565b9350610f7260208601610f2d565b93969395505050506040820135916060013590565b5f5f60408385031215610f98575f5ffd5b50508035926020909101359150565b5f60208284031215610fb7575f5ffd5b5035919050565b5f60208284031215610fce575f5ffd5b610fd782610f2d565b9392505050565b634e487b7160e01b5f52601160045260245ffd5b5f8261100c57634e487b7160e01b5f52601260045260245ffd5b500490565b8181038181111561102457611024610fde565b92915050565b5f6001820161103b5761103b610fde565b506001019056fea26469706673582212205d4a6b897ce97925ae568ace9a0bdb17859fb41101f0c452364d0328473a8c6d64736f6c634300081e0033","linkReferences":{}},"methodIdentifiers":{"acceptFeeCollector()":"fa5e81ac","claim(uint256)":"379607f5","deposit(address,address,uint256,uint256)":"20e8c565","extendDeadline(uint256,uint256)":"2d1fdef6","feeCollector()":"c415b95c","getInheritance(uint256)":"dd43b637","inheritances(uint256)":"b3ad7e04","nextInheritanceId()":"8df78f41","pendingFeeCollector()":"1db1231b","reclaim(uint256)":"2dabbeed","transferFeeCollector(address)":"babbf04c"},"id":36}